:100000005CC0000082C0000080C000007EC0000014
:100010007CC000007AC0000078C0000076C00000FC
:1000200074C0000072C0000070C000006EC000000C
:100030006CC000000C94A60B68C0000066C00000F5
:100040000C940F0F62C000000C946B110C949D1166
:100050005CC000005AC0000058C0000056C000003C
:1000600054C0000052C0000000000008000201005F
:100070000003040700000000000000000102040863
:100080001020408001020408102001020408102002
:10009000040404040404040402020202020203032E
:1000A0000303030300000000250028002B000000CC
:1000B0000000240027002A00C21111241FBECFEF28
:1000C000D8E0DEBFCDBF11E0A0E0B1E0ECE8F4E2A3
:1000D00002C005900D92A436B107D9F722E0A4E63C
:1000E000B1E001C01D92AF3DB207E1F710E0CDE5F0
:1000F000D0E004C02197FE010E943E12CC35D1070A
:10010000C9F70E94090C0C9444127ACFCF93DF9365
:10011000882349F0EB0181500E94940F99838883D2
:10012000DF91CF910895FB0111821082F9CF0F93D7
:100130001F938B019C0183E03695279517950795B2
:100140008A95D1F70C591E4F462F477021E030E0B9
:10015000F90102C0EE0FFF1F4A95E2F7AF01F80167
:1001600020812423CB010196211102C090E080E080
:100170001F910F9108950F931F938B019C0183E0B2
:1001800036952795179507958A95D1F7677081E081
:1001900090E001C0880F6A95EAF7F801EC59FE4F2C
:1001A0002081452B31F48095822380831F910F910C
:1001B0000895822BFACFCF92DF92EF92FF92CF93E6
:1001C000DF936B017C0160E08EE0C816D104E1048E
:1001D000F10490F48EE08C0D0E94D80FE601219678
:1001E000AE01C701B601C7DFCE01DF91CF91FF900D
:1001F000EF90DF90CF9008958C2DEECF882341F0C3
:100200008150682F70E090E080E050E040E0B3CF94
:100210000895611102C00C94D80F6130E1F362E0DF
:10022000FACF662319F061E00C94141060E0FCCF63
:10023000CF92DF92EF92FF926B017C019F7720E0DB
:1002400030E040E859E50E94B80C87FF2BC020E061
:1002500030E040E05FE3C701B6010E94A80E87FDD1
:100260000EC020E030E040E05FE3C701B6010E942D
:10027000410CFF90EF90DF90CF900C94920D20E016
:1002800030E040E05FEBC701B6010E94A80E1816EF
:1002900084F420E030E0A901C701B6010E94AC0E51
:1002A0006B017C01C701B601FF90EF90DF90CF900A
:1002B000089520E030E040E05FE3C701B6010E940E
:1002C000400CFF90EF90DF90CF900C94A50CCF9254
:1002D000DF92EF92FF926B017C019F7720E030E08C
:1002E00040E05BE40E94B80C87FF2BC020E030E0C8
:1002F00040E05FE3C701B6010E94A80E87FD0EC073
:1003000020E030E040E05FE3C701B6010E94410C0D
:10031000FF90EF90DF90CF900C94920D20E030E0B2
:1003200040E05FEBC701B6010E94A80E181684F4E6
:1003300020E030E0A901C701B6010E94AC0E6B01BC
:100340007C01C701B601FF90EF90DF90CF90089538
:1003500020E030E040E05FE3C701B6010E94400CBE
:10036000FF90EF90DF90CF900C94A50C2F923F92CE
:100370004F925F926F927F928F929F92AF92BF92B5
:10038000CF92DF92EF92FF920F931F93CF93DF9361
:10039000CDB7DEB764970FB6F894DEBF0FBECDBF02
:1003A0006EE070E080E090E0C2DE909331028093D6
:1003B00030029E012A5F3F4F3987288743E050E093
:1003C000B901A4DE6E817F8190E080E00E94550D2E
:1003D00020910C0130910D0140910E0150910F01BF
:1003E0000E94AC0E20911001309111014091120138
:1003F000509113010E94AC0E1BDF6B017C016FE07A
:1004000070E080E090E093DE909349028093480290
:1004100043E050E0BE016A5F7F4F78DE6E817F81EE
:1004200090E080E00E94550D20911401309115015B
:1004300040911601509117010E94AC0E20911801B5
:100440003091190140911A0150911B010E94AC0E8C
:100450002B013C0160E170E080E090E068DE909369
:1004600041028093400243E050E0BE016A5F7F4F4B
:100470004DDE6E817F8190E080E00E94550D2091DD
:100480001C0130911D0140911E0150911F010E94DD
:10049000AC0E209120013091210140912201509118
:1004A00023010E94AC0E6A877B878C879D8761E160
:1004B00070E080E090E03BDE909339028093380258
:1004C00043E050E0BE016A5F7F4F20DE6E817F8196
:1004D00090E080E00E94550D20912401309125018B
:1004E00040912601509127010E94AC0E20912801D5
:1004F0003091290140912A0150912B010E94AC0EAC
:100500004B015C01AC019B01C301B2010E94400C94
:100510009B01AC015F772E873F87488B598B2A85DB
:100520003B854C855D85C301B2010E94400C9F77DD
:100530002AE037ED43EA5CE30E94B80C2AE037ED8D
:1005400043EA5CE318160CF4C9C06E857F85888980
:1005500099890E94B80C18160CF4A4C01092B70226
:100560001092B6022A853B854C855D85C301B20198
:100570000E94410CA50194010E94410C20E030E052
:1005800040E450E40E94BC0C4B015C011A861B8ABB
:100590001A8A62E170E080E090E0C9DD9093290260
:1005A0008093280243E050E0BE016A5F7F4FAEDDDA
:1005B0006E817F8190E080E00E94550D20912C019A
:1005C00030912D0140912E0150912F010E94AC0ECF
:1005D000209130013091310140913201509133012D
:1005E0000E94AC0E25DE2B013C010E945D0B8111A7
:1005F000D2C0C301B201F5D78111CDC020E030E0F7
:1006000040E85FE4C301B2010E94AC0D2B013C0144
:1006100020E030E0A9010E94B80C87FFBFC0C301F1
:10062000B20190580E94290D00271127061B170BB5
:100630001092BB021092BA0281E00115110509F077
:1006400080E0898381E00130110509F080E08A8330
:1006500081E00230110509F080E08B8381E00330F6
:10066000110509F080E08C8381E00430110509F068
:1006700080E08D839E012F5F3F4F1901F901819129
:10068000811192C0488559854E175F07C1F782E0F6
:1006900090E09093BB028093BA0202E010E021E068
:1006A0002C8B83C02A853B854C855D85C301B201B7
:1006B0000E94410C20E030E040E05FE30E94AC0E7D
:1006C0004B015C0181E090E09093B7028093B60209
:1006D0001A8643E050E05B8B4A8B5BCF6E857F854B
:1006E000888999890E94B80CA50194011816C4F054
:1006F000C301B2010E94410C20E030E040E05FE322
:100700000E94AC0E4B015C0181E090E09093B70237
:100710008093B6021A8682E090E09B8B8A8B39CF59
:100720006A857B858C859D850E94400C9F772AE099
:1007300037ED43EA5CE30E94B80C1816E4F0A5011B
:1007400094016A857B858C859D850E94410C20E003
:1007500030E040E05FE30E94AC0E4B015C0181E0C1
:1007600090E09093B7028093B6021A86A1E0B0E0C1
:10077000BB8BAA8B0ECF82E090E09093B702809360
:10078000B602B1E0BA87812C912C5401E4E0F0E08C
:10079000FB8BEA8BFECE412C512C3201C301B201FE
:1007A0000E94290D8B0144CF1C8A1092BF02109227
:1007B000BE024090AA025090AB026090AC027090D2
:1007C000AD0220E030E0A901C301B2010E94B80CE3
:1007D000882319F120E030E0A901C301B2010E9491
:1007E000A80E18163CF48091AE029091AF020397C8
:1007F000029798F020E030E0A901C301B2010E9405
:10080000B80C87FF37C48091AE029091AF0281305F
:10081000910519F0049709F02DC420E030E040EA7A
:1008200052E4C301B2010E94A80E181654F020E051
:1008300030E040EA52ECC301B2010E94B80C87FFDD
:1008400071C081E090E09093BF028093BE0251E0BE
:100850005E8780E09A85911167C0AC89A11169C05B
:10086000E82FF0E0FB87EA8763E170E080E090E04A
:100870005EDC909321028093200243E050E0BE01B1
:100880006A5F7F4F43DC6E817F8190E080E00E9451
:10089000550D209134013091350140913601509130
:1008A00037010E94AC0E20913801309139014091FE
:1008B0003A0150913B010E94AC0E20913C013091D5
:1008C0003D0140913E0150913F01DBD72B013C019E
:1008D00020E030E040E753E40E94A80E181654F0E0
:1008E00020E030E040E752ECC301B2010E94B80CB6
:1008F00087FF24C081E090E09093BD028093BC020A
:100900008E878093C4028091B10281111EC081E064
:100910008093B10284E08093B2021092AF021092F1
:10092000AE0200C11E8695CF21E030E03B872A87CA
:100930009BCF41E050E05B874A8796CF1092BD0283
:100940001092BC025E85852FDBCF8091B20282308F
:1009500009F412C290F4813049F181E090E0909363
:10096000AF028093AE020130110521F4BA85BB239A
:1009700009F4DCC21092B5020DC2833009F474C2CE
:10098000843059F71092AF021092AE0220E030E0AE
:10099000A901C701B601ECD7882319F0012B09F092
:1009A000F9C1AA85AA2309F4B5C0F4C184E090E096
:1009B0009093AF028093AE020430110519F49A852A
:1009C000992361F01092B30282E08093B20283E037
:1009D00090E09093AF028093AE0222C28091B30266
:1009E000823009F48BC080F4813009F441C02BEAD5
:1009F0003AEA4AEA5EE3C501B4010E94A80E18165D
:100A00000CF0B0C184E03EC0833009F46DC1843085
:100A100071F72BEA3AEA4AEA5EE3C501B401A8D7C6
:100A200018160CF07AC120E030E0A901C701B60128
:100A30009FD7811172C12091000130910101409135
:100A4000020150910301C301B2010E94A80E1816C1
:100A50000CF454C120E030E040EA51E4609104011C
:100A600070910501809106019091070185D73DC0E5
:100A70002BEA3AEA4AEA5EE3C501B40179D71816CF
:100A800024F083E08093B3024DC020E030E0A90160
:100A9000C701B6016DD7811103C0AE85AA2311F03D
:100AA00082E0F0CF20E030E040E450E460910401C7
:100AB0007091050180910601909107010E94AC0E92
:100AC00020E030E040E05FE30E94AC0E6B017C016F
:100AD0002BEA3AEA4AEA5EE3C501B401D1D69B01AA
:100AE000AC01C701B6010E94AC0E6093C0027093C6
:100AF000C1028093C2029093C30214C020E030E090
:100B0000A901C701B60134D7811104C0BE85BB233A
:100B100009F4B7CF1092C0021092C1021092C20223
:100B20001092C30219821A821B821C821D82E091DC
:100B3000AE02F091AF02EC0FFD1F81E081836A816C
:100B400083E06FDB6B8184E06CDB6C8185E069DBCB
:100B5000698182E066DB6D8186E063DB2A893B89FF
:100B6000B901330F880B990BA2D720E030E040E8A1
:100B70005FE4F2D769D79B01615071096330710559
:100B800008F433C211E02430310509F010E060E0D0
:100B900087E047DB612F88E044DB1092B9021092B6
:100BA000B802E6EBF2E0B101CF01DC014D915D91BD
:100BB000CD0121E04130510509F020E0DB012D930A
:100BC000BD01B2E0803C9B0781F7B101DB012D91B3
:100BD000BD0121110DC2288539852A173B07B1F7C0
:100BE000C1014191519121E04230510509F020E0CD
:100BF000DC012D93CD01B2E0E03CFB0791F7F10160
:100C000011911F01111112C2E617F707C1F760E039
:100C10008AE007DB612F89E004DB2091C00230917C
:100C2000C1024091C2025091C30260914A01709189
:100C30004B0180914C0190914D010E94AC0E20918E
:100C4000460130914701409148015091490119D620
:100C50003EDB6B017C0117D5882309F4EAC1C12C66
:100C6000D12C7601C701B601F4D660387105810533
:100C700091050CF4FCC160E011E08CE0D2DA612F48
:100C80008BE0CFDA61E08091B002811160E0609387
:100C9000B0028DE0C6DA8091C0029091C102A091AD
:100CA000C202B091C3028093AA029093AB02A093B8
:100CB000AC02B093AD0264960FB6F894DEBF0FBEDF
:100CC000CDBFDF91CF911F910F91FF90EF90DF90FB
:100CD000CF90BF90AF909F908F907F906F905F90DC
:100CE0004F903F902F9008952BEA3AEA4AEA5EE34C
:100CF000C501B4010E94A80E181614F481E0C2CEFA
:100D000020910001309101014091020150910301B5
:100D1000C301B2012DD6181614F085E0B3CE20E041
:100D200030E0A901C701B60123D68111B9CEC09028
:100D30000401D0900501E0900601F0900701F7FA58
:100D4000F094F7F8F09420E030E040E450E4C5017E
:100D5000B4010E94AC0E9B01AC0160E070E080E841
:100D60009FE3BCCE20E030E0A901C701B60100D668
:100D7000882309F4CFCE94CE83E090E09093AF0225
:100D80008093AE020330110518F0EA85EE2361F07E
:100D90001092B40283E08093B20282E090E09093DC
:100DA000AF028093AE02BECE2BEA3AEA4AEA5EE395
:100DB000C501B401CDD718166CF40430110551F4F7
:100DC0001092B40281E08093B2021093AF020093BC
:100DD000AE0258CE8091B4028230F9F020E030E0CB
:100DE000A9018330F9F0813059F5C701B601C0D5AA
:100DF000882321F084E08093B40294CE3E8582E083
:100E00003111F9CFA50194016091040170910501A0
:100E1000809106019091070166CE4E8541117ACEF0
:100E200081E0E9CFC701B601A3D5811113CE20E03F
:100E300030E0A901C501B4018BD718168CF30ACE96
:100E4000C701B60195D5811165CEA30192016091CC
:100E5000000170910101809102019091030178D706
:100E600087FDDECF83E0C7CF82E090E09093AF02B2
:100E70008093AE0220E030E040EA50ECC301B201C2
:100E800067D718169CF520E030E0A901C701B6012C
:100E90006FD5882359F1C8010397029720F45A852A
:100EA000552309F491CD20E030E040EA50E4C3013D
:100EB000B2015ED587FD2BC0C301B2019F7720E050
:100EC00030E040EA50E454D587FF24CE20E030E003
:100ED000A901C701B6014CD5882309F41BCE012B0B
:100EE00009F018CE9A85911115CE14CD20E030E08E
:100EF00040EA50E4C301B2013BD587FFDDCF20E0DB
:100F000030E0A901C701B60133D58823A9F2013029
:100F1000110591F68A858111CFCF85E08093B202C9
:100F20001093AF020093AE0281E013C08091B5022E
:100F3000823011F1833009F43DC020E030E0A90196
:100F4000813009F03CC0C701B60112D5882321F0D9
:100F500084E08093B502E6CDEE8583E0E111F9CF20
:100F6000609108017091090180910A0190910B0133
:100F70009058A5019401B7CD20E030E0A901C70148
:100F8000B601F6D4811108C020E030E0A901C50106
:100F9000B401DED6181644F260910801709109017F
:100FA00080910A0190910B01905820E030E040EAD6
:100FB00051E45CCDFE85FF2309F4B6CFABCDC7016C
:100FC000B601D6D48111A6CDC301B2019F7720917D
:100FD0000001309101014091020150910301C8D4F8
:100FE00018160CF4A1CF82E0B4CF10E061E0D0CDB0
:100FF000D1014191519121E04230510509F020E0A9
:101000002D938E179F07A9F7D1018D911D01811195
:101010000DC0E885F985EA17FB07B1F781E090E09C
:1010200011E0019709F010E061E0F2CD82E090E07C
:10103000F7CFC701B601FED2811111CE20E030E01A
:1010400040E85FE4C701B60187D56B017C0120E071
:1010500030E0A9018DD487FF05CEC701B6019058B5
:10106000F8D461387F4F8F4F9F4F0CF404CE61E06E
:1010700010E003CE82E090E09093BF028093BE0226
:101080001E8681E0E7CBCF92DF92EF92FF921F9313
:10109000CF93DF9384E090E06DD2CAE1D2E08091FB
:1010A000420190914301A0914401B0914501809388
:1010B000AA029093AB02A093AC02B093AD028091D0
:1010C0004001909141019093AF028093AE028091D4
:1010D0004E018093B002188AC12CD12C7601C394A2
:1010E000C98ADA8AEB8AFC8A6EE070E080E090E0E0
:1010F00062D89F8B8E8B11E01D8B18A6C9A6DAA62D
:10110000EBA6FCA66FE070E080E090E054D89FA7CB
:101110008EA71DA718A2C9A2DAA2EBA2FCA260E1C9
:1011200070E080E090E047D89FA38EA31DA3188EA7
:10113000C98EDA8EEB8EFC8E61E170E080E090E08B
:101140003AD89F8F8E8F1D8F1886C986DA86EB86D8
:10115000FC8662E170E080E090E02DD89F878E876A
:101160001D871882C982DA82EB82FC8263E170E01B
:1011700080E090E020D89F838E831D8310928202AE
:10118000C0928302D0928402E0928502F09286029D
:1011900061E083E03ED81093870210926A02C09209
:1011A0006B02D0926C02E0926D02F0926E0261E0EE
:1011B00084E02FD810936F0210926202C0926302F3
:1011C000D0926402E0926502F092660261E085E0EE
:1011D00020D81093670210925A02C0925B02D092FC
:1011E0005C02E0925D02F0925E0261E082E011D862
:1011F00010935F0218AEC9AEDAAEEBAEFCAE61E0A2
:1012000086E007D81DAF10927202C0927302D0928E
:101210007402E0927502F092760261E087E00E942B
:1012200009011093770218AAC9AADAAAEBAAFCAAA4
:1012300061E088E00E9409011DAB10929202C09209
:101240009302D0929402E0929502F092960261E0AD
:101250008AE00E9409011093970210928A02C092BC
:101260008B02D0928C02E0928D02F0928E0261E0AD
:1012700089E00E94090110938F0210929A02C09295
:101280009B02D0929C02E0929D02F0929E0261E04D
:101290008CE00E94090110939F0210927A02C09282
:1012A0007B02D0927C02E0927D02F0927E0261E0AD
:1012B0008BE00E94090110937F021092A202C0925B
:1012C000A302D092A402E092A502F092A60261E0ED
:1012D0008DE00E9409011093A702DF91CF911F9129
:1012E000FF90EF90DF90CF90089580912A028111B6
:1012F0001FC081E080932A0280912B0290912C02E2
:10130000A0912D02B0912E020197A105B10581F4A3
:1013100080912F02882361F06EE070E080E090E021
:101320000E94970090933102809330020E94FE0049
:101330008091420281111FC081E08093420280911E
:10134000430290914402A0914502B0914602019758
:10135000A105B10581F480914702882361F06FE017
:1013600070E080E090E00E949700909349028093A3
:1013700048020E94FE0080913A0281111FC081E064
:1013800080933A0280913B0290913C02A0913D02F1
:10139000B0913E020197A105B10581F480913F0211
:1013A000882361F060E170E080E090E00E949700A7
:1013B00090934102809340020E94FE00809132028D
:1013C00081111FC081E0809332028091330290919D
:1013D0003402A0913502B09136020197A105B10502
:1013E00081F480913702882361F061E170E080E050
:1013F00090E00E94970090933902809338020E94F7
:10140000FE008091220281111FC081E080932202A0
:101410008091230290912402A0912502B09126028E
:101420000197A105B10581F480912702882361F01D
:1014300062E170E080E090E00E94970090932902C2
:10144000809328020E94FE0080911A0281111FC021
:1014500081E080931A0280911B0290911C02A0915E
:101460001D02B0911E020197A105B10581F4809182
:101470001F02882361F063E170E080E090E00E9449
:10148000970090932102809320020E94FE00809199
:101490008202811103C081E08093820280916A02FE
:1014A000811103C081E080936A0280916202811100
:1014B00003C081E08093620280915A02811103C0CF
:1014C00081E080935A0280915202811103C081E031
:1014D0008093520280917202811103C081E0809357
:1014E000720280914A02811103C081E080934A0216
:1014F00080919202811103C081E0809392028091D9
:101500008A02811103C081E080938A0280919A024D
:10151000811103C081E080939A0280917A02811147
:1015200003C081E080937A028091A202811103C0FE
:1015300081E08093A202089560E070E080E89FE778
:10154000089560E070E080E89FE7089560E070E053
:1015500080E89FEF089560E070E080E89FEF0895D5
:1015600060E070E080EC9FEF089560E070E080EC58
:101570009FEF0895F5DF6093D1027093D2028093BC
:10158000D3029093D402F1DF6093C5027093C60238
:101590008093C7029093C802CFDF6093CD0270930F
:1015A000CE028093CF029093D002CBDF6093C9022A
:1015B0007093CA028093CB029093CC02C7DF6093F2
:1015C000D5027093D6028093D7029093D802C3DFDE
:1015D0006093D9027093DA028093DB029093DC026D
:1015E0000895CF92DF92EF92FF92CF936B017C012F
:1015F000AC019B016091CD027091CE028091CF022F
:101600009091D002B5D1C1E0882369F0A70196017D
:101610006091D5027091D6028091D7029091D80244
:10162000A7D18111C0E08C2FCF91FF90EF90DF9078
:10163000CF900895CF92DF92EF92FF92CF936B01FC
:101640007C01AC019B016091C9027091CA0280913A
:10165000CB029091CC028CD1C1E0882369F0A70124
:1016600096016091D9027091DA028091DB0290912B
:10167000DC027ED18111C0E08C2FCF91FF90EF90E2
:10168000DF90CF9008950F931F938B019C0100274B
:10169000112720783F770115110520483F4749F46D
:1016A000AB01BC016F77772781E0452B462B472B99
:1016B00009F480E01F910F910895E5CF26E030E016
:1016C00040E855E260E070E090E080E000C01092F9
:1016D000700110926F0189309105E0F48E58944F9B
:1016E000FC01CCC67B0B840B8B0B8E0B910B940BEC
:1016F000970B9A0BA00B81E090E090937001809380
:101700006F018DE791E087C582E090E090937001D2
:1017100080936F01089584E090E0F8CF88E090E036
:10172000F5CF80E190E0F2CF80E290E0EFCF80E46F
:1017300090E0ECCF80E890E09093700180936F018F
:1017400080916F01909170019160E0CF1F920F9294
:101750000FB60F9211242F933F934F935F936F9384
:101760007F938F939F93AF93BF93EF93FF9386E9FC
:1017700097EE909385008093840032D0FF91EF9193
:10178000BF91AF919F918F917F916F915F914F9199
:101790003F912F910F900FBE0F901F90189586E9E3
:1017A00097EE9093850080938400AFE6B0E08C9133
:1017B0008E7F8C93E0E8F0E080818C7F8083E1E88D
:1017C000F0E08081877E8083808184608083808157
:1017D0008C7F80838C9181608C93089581E0089543
:1017E0008091710191E0980F90937101882349F0E5
:1017F00021E030E0309373012093720180937101F6
:10180000089578940E94B601F894809171018150F6
:10181000F5CFCF93DF931092DE021092DD0249D311
:101820004DDFC0915001D0915101198218822BDCFB
:10183000F894B5DF2881398181E0232B09F080E01D
:101840008093DD02789478948091DD02811107C045
:101850004CDDF89490E080E0DF91CF9108952881ED
:10186000398181E0232B09F480E08093DE0290919E
:10187000DE0281E0911180E08093DD02AFDFE4CFF2
:101880005058BB27AA270ED012C203D230F008D27C
:1018900020F031F49F3F11F41EF4F8C10EF4E095EE
:1018A000E7FBC5C1E92F14D280F3BA1762077307AB
:1018B0008407950718F071F49EF543C20EF4E09585
:1018C0000B2EBA2FA02D0B01B90190010C01CA01FA
:1018D000A0011124FF27591B99F0593F50F4503EA5
:1018E00068F11A16F040A22F232F342F4427585F97
:1018F000F3CF469537952795A795F0405395C9F7AF
:101900007EF41F16BA0B620B730B840BBAF0915066
:10191000A1F0FF0FBB1F661F771F881FC2F70EC005
:10192000BA0F621F731F841F48F4879577956795D8
:10193000B795F7959E3F08F0B3CF9395880F08F0C1
:101940009927EE0F979587950895E4D180F09F37FA
:1019500040F491110EF4F6C160E070E080E89FE37E
:10196000089526F01B16611D711D811D66C180C181
:101970003AD108F481E008950CD099C191D140F09A
:1019800088D130F021F45F3F19F051C15111DAC113
:101990007DC19ED198F39923C9F35523B1F3951BCB
:1019A000550BBB27AA2762177307840738F09F5F80
:1019B0005F4F220F331F441FAA1FA9F333D00E2EEF
:1019C0003AF0E0E830D091505040E695001CCAF75C
:1019D00029D0FE2F27D0660F771F881FBB1F261721
:1019E00037074807AB07B0E809F0BB0B802DBF01F4
:1019F000FF2793585F4F2AF09E3F510568F017C1AB
:101A0000A1C15F3FECF3983EDCF38695779567952F
:101A1000B795F7959F5FC9F7880F911D96958795A4
:101A200097F90895E1E0660F771F881FBB1F6217C3
:101A300073078407BA0720F0621B730B840BBA0B81
:101A4000EE1F88F7E095089504D06894B1117AC12B
:101A5000089546D188F09F5790F0B92F9927B75134
:101A6000A0F0D1F0660F771F881F991F1AF0BA9562
:101A7000C9F712C0B13081F064D1B1E0089561C1FD
:101A8000672F782F8827B85F39F0B93FCCF3869558
:101A900077956795B395D9F73EF4909580957095B5
:101AA00061957F4F8F4F9F4F0895E89409C097FB32
:101AB0003EF490958095709561957F4F8F4F9F4F25
:101AC0009923A9F0F92F96E9BB279395F695879569
:101AD00077956795B795F111F8CFFAF4BB0F11F42C
:101AE00060FF1BC06F5F7F4F8F4F9F4F16C08823D3
:101AF00011F096E911C0772321F09EE8872F762F09
:101B000005C0662371F096E8862F70E060E02AF049
:101B10009A95660F771F881FDAF7880F9695879535
:101B200097F90895F7D080F09F3740F491110EF0A7
:101B300009C160E070E080E89FEB089526F41B1671
:101B4000611D711D811D79C093C0A3D018F011F0E3
:101B5000A7D038F49BC0F6C0E92FBAD0B0F3552314
:101B6000C9F3E7FB6217730784079507A8F199F398
:101B7000E92FFF2788232AF03197660F771F881FE8
:101B8000DAF7952F5527442332F091505040220F19
:101B9000331F441FD2F7BB27E91BF50B621B730BE6
:101BA000840BB109C1F222F4620F731F841FB11DAF
:101BB00031972AF0660F771F881FBB1FEFCF915018
:101BC00050405AF041F0882332F0660F771F881F8B
:101BD00091505040C1F793954BC086957795679586
:101BE0009F5FD9F7F8CF990F0008550FAA0BE0E8CF
:101BF000FEEF16161706E807F907C0F012161306CF
:101C0000E407F50798F0621B730B840B950B39F40E
:101C10000A2661F0232B242B252B21F408950A2674
:101C200009F4A140A6958FEF811D811D089597F9B4
:101C30009F6780E870E060E00895882371F477235F
:101C400021F09850872B762F07C0662311F499272F
:101C50000DC09051862B70E060E02AF09A95660FD7
:101C6000771F881FDAF7880F9695879597F908955B
:101C70009F3F31F0915020F4879577956795B79500
:101C8000880F911D9695879597F908959FEF80ECA1
:101C9000089500240A9416161706180609060895D2
:101CA00000240A9412161306140605060895092E38
:101CB0000394000C11F4882352F0BB0F40F4BF2BA7
:101CC00011F460FF04C06F5F7F4F8F4F9F4F0895E7
:101CD00057FD9058440F551F59F05F3F71F04795DD
:101CE000880F97FB991F61F09F3F79F087950895C2
:101CF000121613061406551FF2CF4695F1DF08C0E1
:101D0000161617061806991FF1CF869571056105FD
:101D100008940895E5DFA0F0BEE7B91788F4BB2763
:101D20009F3860F41616B11D672F782F8827985FAB
:101D3000F7CF869577956795B11D93959639C8F33A
:101D40000895E894BB2766277727CB0197F9089574
:101D50004ADF08F48FEF08950BD0A9CF9ADF28F05F
:101D60009FDF18F0952309F062CF90CF1124EACFBE
:101D7000AFDFA0F3959FD1F3950F50E0551F629F01
:101D8000F001729FBB27F00DB11D639FAA27F00DD4
:101D9000B11DAA1F649F6627B00DA11D661F829FFB
:101DA0002227B00DA11D621F739FB00DA11D621FE0
:101DB000839FA00D611D221F749F3327A00D611DFD
:101DC000231F849F600D211D822F762F6A2F1124DF
:101DD0009F5750408AF0E1F088234AF0EE0FFF1F32
:101DE000BB1F661F771F881F91505040A9F79E3F69
:101DF000510570F01CCFA6CF5F3FECF3983EDCF3AB
:101E0000869577956795B795F795E7959F5FC1F7A5
:101E1000FE2B880F911D9695879597F908951F922F
:101E20000F920FB60F9211242F933F938F939F938E
:101E3000AF93BF938091750190917601A091770146
:101E4000B09178013091740123E0230F2D3758F5BC
:101E50000196A11DB11D209374018093750190938B
:101E60007601A0937701B0937801809179019091E8
:101E70007A01A0917B01B0917C010196A11DB11D59
:101E80008093790190937A01A0937B01B0937C01B8
:101E9000BF91AF919F918F913F912F910F900FBE66
:101EA0000F901F90189526E8230F0296A11DB11DD3
:101EB000D2CF789484B5826084BD84B5816084BDBE
:101EC00085B5826085BD85B5816085BDEEE6F0E0B3
:101ED000808181608083E1E8F0E01082808182600F
:101EE0008083808181608083E0E8F0E08081816090
:101EF0008083E1EBF0E0808184608083E0EBF0E0C0
:101F0000808181608083EAE7F0E080818460808363
:101F1000808182608083808181608083808180680D
:101F200080831092C10008958E3008F08E50209169
:101F30004F0190E4299F900111248770822B809398
:101F40007C0080917A00806480937A0080917A008E
:101F500086FDFCCF809178009091790008958330C0
:101F600081F028F4813099F08230A9F0089587300B
:101F7000A9F08830C9F08430B1F4809180008F7D61
:101F800003C0809180008F7780938000089584B58E
:101F90008F7784BD089584B58F7DFBCF8091B0008D
:101FA0008F778093B00008958091B0008F7DF9CF36
:101FB000CF93DF9390E0FC01E458FF4F24918057CA
:101FC0009F4FFC0184918823C9F090E0880F991FEE
:101FD000FC01E255FF4FA591B491FC01EC55FF4F78
:101FE000C591D49161110DC09FB7F8948C91209543
:101FF00082238C938881282328839FBFDF91CF91F0
:102000000895623051F49FB7F8943C91822F8095E7
:1020100083238C93E8812E2BEFCF8FB7F894EC912C
:102020002E2B2C938FBFEACF1F93CF93DF93282FB4
:1020300030E0F901E859FF4F8491F901E458FF4F6E
:10204000D491F901E057FF4FC491CC23A1F0162F92
:10205000811185DFEC2FF0E0EE0FFF1FEC55FF4FF5
:10206000A591B4918FB7F894EC91111108C0D09557
:10207000DE23DC938FBFDF91CF911F910895DE2B7C
:10208000F8CFFC01918D228D892F90E0805C9F4FCD
:10209000821B91098F7399270895FC01918D828D80
:1020A000981731F0828DE80FF11D858D90E008952D
:1020B0008FEF9FEF0895FC01918D828D981761F04D
:1020C000A28DAE0FBF2FB11D5D968C91928D9F5F3B
:1020D0009F73928F90E008958FEF9FEF0895FC011A
:1020E000538D448D252F30E0842F90E0821B930B7D
:1020F000541710F0CF96089501970895FC01A48D10
:10210000A80FB92FB11DA35ABF4F2C91848D90E019
:1021100001968F739927848FA689B7892C93A089FC
:10212000B1898C91837080648C93938D848D981386
:1021300006C00288F389E02D80818F7D8083089519
:10214000CF93DF93EC01888D8823B1F0AA89BB89F6
:10215000E889F9898C9185FD03C0808186FD0CC0DA
:102160000FB607FCF7CF8C9185FFF2CF808185FFFA
:10217000EDCFCE01C3DFEACFDF91CF910895EF928B
:10218000FF920F931F93CF93DF93EC0181E0888F31
:102190009B8D8C8D98131AC0E889F989808185FF01
:1021A00015C09FB7F894EE89FF896083E889F989A3
:1021B00080818370806480839FBF81E090E0DF91A5
:1021C000CF911F910F91FF90EF900895F62E0B8DF8
:1021D00010E00F5F1F4F0F731127E02E8C8D8E11B3
:1021E0000BC00FB607FCFACFE889F989808185FF1B
:1021F000F5CFCE0183DFF2CFEB8DEC0FFD2FF11D7C
:10220000E35AFF4FF0829FB7F8940B8FEA89FB895E
:1022100080818062D0CFCF92DF92EF92FF921F93A6
:10222000CF93DF93EC016A017B01122FE889F989D2
:1022300082E08083C11481EED806E104F10499F0B4
:1022400060E079E08DE390E0A7019601F5D02150A0
:10225000310941095109569547953795279521151B
:1022600080E1380790F0E889F989108260E874E825
:102270008EE190E0A7019601DFD02150310941099C
:1022800051095695479537952795EC85FD853083FF
:10229000EE85FF852083188EEC89FD891083EA89FD
:1022A000FB89808180618083EA89FB8980818860E5
:1022B0008083EA89FB89808180688083EA89FB8941
:1022C00080818F7D8083DF91CF911F91FF90EF9070
:1022D000DF90CF9008951F920F920FB60F921124A6
:1022E0002F938F939F93EF93FF93E0918D01F09144
:1022F0008E018081E0919301F091940182FD1BC0D9
:102300009081809196018F5F8F7320919701821742
:1023100041F0E0919601F0E0E358FE4F958F8093F5
:102320009601FF91EF919F918F912F910F900FBE8A
:102330000F901F9018958081F4CF1F920F920FB6C7
:102340000F9211242F933F934F935F936F937F933B
:102350008F939F93AF93BF93EF93FF938DE791E09C
:10236000CDDEFF91EF91BF91AF919F918F917F91C2
:102370006F915F914F913F912F910F900FBE0F90F2
:102380001F901895EDE7F1E01382128288EE93E03A
:10239000A0E0B0E084839583A683B78386E591E0CF
:1023A0009183808385EC90E09587848784EC90E02E
:1023B0009787868780EC90E0918B808B81EC90E012
:1023C000938B828B82EC90E0958B848B86EC90E0F3
:1023D000978B868B118E128E138E148E0895AF926A
:1023E000BF92CF92DF92EF92FF920F931F93CF9302
:1023F000DF936C017B018B01040F151FEB015E0164
:10240000AE18BF08C017D10759F06991D601ED91F8
:10241000FC910190F081E02DC6010995892B79F797
:10242000C501DF91CF911F910F91FF90EF90DF9049
:10243000CF90BF90AF900895A1E21A2EAA1BBB1BAC
:10244000FD010DC0AA1FBB1FEE1FFF1FA217B30780
:10245000E407F50720F0A21BB30BE40BF50B661F96
:10246000771F881F991F1A9469F76095709580955A
:1024700090959B01AC01BD01CF010895EE0FFF1FA8
:0C2480000590F491E02D0994F894FFCF32
:10248C000000003F0000A042000020420A28A03BB0
:10249C00CDCC4C3E0A28A03BCDCC4C3E0A28A03BD0
:1024AC00CDCC4C3E0A28A03BCDCC4C3E0A28A03BC0
:1024BC00CDCC4C3F0A28A03B00007042000070C2FB
:1024CC000000000000000000FF420000CC3F0001B3
:1024DC006D0100000000BF10EF116F10A010411033
:0424EC005B104D1024
:00000001FF
